:100A4300454E5445522050494E0050494E20434F85
:100A5300525245435400444F4F52204F50454E4548
:0C0A6300440057524F4E472050494E00AF
:080AB400060D31323334350028
:0F0997007F0F120A987F38120A987F01120A9870
:1009A600E4F513F5147F80120A987BFF7A0A7943DF
:1009B6001209E5120A747FC0120A98740D2514F8FC
:1009C600E6601712080074082514F8A607120A74C0
:0D09D6000514E51470E5051380E1120925F4
:0209E30080C1D1
:090A6F007F2A120AA67FE87E032B
:100A7800E4FDFCC3ED9FEC9E5015E4FBFA0BBB00B4
:0F0A8800010AEB640A4A70F50DBD00010C80E411
:010A9700223C
:0E0A98008F90C2B5C2B6D2B7120A74C2B7228E
:0E0AA6008F90D2B5C2B6D2B7120A74C2B72270
:0609E5008B158A1689172C
:1009EB00E4F518F519AB15AA16A917851982851800
:1009FB0083120A16FF600D120AA60519E51970E598
:0B0A0B00051880E17F107E27020A78AA
:10080000E4FFFEEF4E6003020898C2A0D2A1D2A27C
:10081000D2A320B006120A6F7F312220B106120A3D
:100820006F7F322220B206120A6F7F3322D2A0C21B
:10083000A1D2A2D2A320B006120A6F7F342220B127
:1008400006120A6F7F352220B206120A6F7F362207
:10085000D2A0D2A1C2A2D2A320B006120A6F7F37C3
:100860002220B106120A6F7F382220B206120A6FC8
:100870007F3922D2A0D2A1D2A2C2A320B006120AEE
:100880006F7F2A2220B106120A6F7F302230B20316
:08089000020803120A6F7F2326
:01089800223D
:10092500E50D65087050E50E6509704AE50F650A25
:100935007044E510650B703EE511650C7038120AC0
:10094500747F01120A987F81120A987BFF7A0A79CF
:100955004D1209E5120A74D2B3C2B47FC1120A98C6
:100965007BFF7A0A79591209E57F107E27120A78EA
:10097500D2B3C2B480167F01120A987F80120A98FA
:100985007BFF7A0A79651209E5120A747F01120A5A
:020995009822A6
:030000000208995A
:0C089900787FE4F6D8FD7581190208E0B4
:100A1600BB010CE58229F582E5833AF583E0225095
:100A260006E92582F8E622BBFE06E92582F8E222DF
:0D0A3600E58229F582E5833AF583E49322F9
:1008A500020997E493A3F8E493A34003F68001F2C9
:1008B50008DFF48029E493A3F85407240CC8C33354
:1008C500C4540F4420C8834004F456800146F6DF23
:1008D500E4800B0102040810204080900AB4E47EF5
:1008E500019360BCA3FF543F30E509541FFEE49318
:1008F500A360010ECF54C025E060A840B8E493A3DF
:10090500FAE493A3F8E493A3C8C582C8CAC583CA09
:10091500F0A3C8C582C8CAC583CADFE9DEE780BEC1
:010ABC000039
:00000001FF
